S01E000074656D70657261747572655F636F6E74726F6C6C65722E73726563B5
S11300000C942A000C9447000C9447000C94DB05D4
S11300100C94A5050C9447000C9447000C944700DD
S11300200C9447000C9447000C9447000C94470030
S11300300C9447000C9447000C9447000C94470020
S11300400C9447000C9447000C9447000C94470010
S11300500C94470011241FBECFE5D8E0DEBFCDBF0E
S113006010E0A0E6B0E0EAEBF2E102C005900D92E8
S1130070A23BB107D9F720E0A2EBB0E001C01D928A
S1130080A63BB207E1F70E947D040C945B090C9433
S1130090000087B1806487B986B1806886B986B16B
S11300A0846086B986B1826086B9089586B1806419
S11300B086B9349BFECF86B1806186B924B185B1FF
S11300C090E0982F8827822B0895823419F118F430
S11300D0813439F008958334B1F1843409F44CC087
S11300E00895413059F42AB381E090E002C0880FAA
S11300F0991F6A95E2F7822B8ABB08952AB381E09F
S113010090E002C0880F991F6A95E2F780958223D8
S11301108ABB0895413059F427B381E090E002C0CE
S1130120880F991F6A95E2F7822B87BB089527B33E
S113013081E090E002C0880F991F6A95E2F78095EC
S1130140822387BB0895413059F424B381E090E0C1
S113015002C0880F991F6A95E2F7822B84BB089529
S113016024B381E090E002C0880F991F6A95E2F7FA
S11301708095822384BB0895413059F421B381E0F2
S113018090E002C0880F991F6A95E2F7822B81BB29
S1130190089521B381E090E002C0880F991F6A9509
S11301A0E2F78095822381BB0895823419F118F413
S11301B0813439F008958334B1F1843409F44CC0A6
S11301C00895413059F42BB381E090E002C0880FC8
S11301D0991F6A95E2F7822B8BBB08952BB381E0BC
S11301E090E002C0880F991F6A95E2F780958223F8
S11301F08BBB0895413059F428B381E090E002C0EC
S1130200880F991F6A95E2F7822B88BB089528B35B
S113021081E090E002C0880F991F6A95E2F780950B
S1130220822388BB0895413059F425B381E090E0DE
S113023002C0880F991F6A95E2F7822B85BB089547
S113024025B381E090E002C0880F991F6A95E2F718
S11302508095822385BB0895413059F422B381E00F
S113026090E002C0880F991F6A95E2F7822B82BB47
S1130270089522B381E090E002C0880F991F6A9527
S1130280E2F78095822382BB08958234E9F018F462
S1130290813431F055C0833459F18434E9F150C0CC
S11302A049B381E090E09C01062E02C0220F331F67
S11302B00A94E2F7842F90E08223932302C0959559
S11302C087956A95E2F7089546B381E090E09C0132
S11302D0062E02C0220F331F0A94E2F7842F90E007
S11302E08223932302C0959587956A95E2F7089532
S11302F043B381E090E09C01062E02C0220F331F1D
S11303000A94E2F7842F90E08223932302C0959508
S113031087956A95E2F7089540B381E090E09C01E7
S1130320062E02C0220F331F0A94E2F7842F90E0B6
S11303308223932302C0959587956A95E2F70895E1
S113034080E00895823419F11CF4813439F0089561
S11303508334B1F1843409F44CC00895413059F424
S11303602BB381E090E002C0880F991F6A95E2F7F1
S1130370822B8BBB08952BB381E090E002C0880FE1
S1130380991F6A95E2F7809582238BBB08954130CB
S113039059F428B381E090E002C0880F991F6A9550
S11303A0E2F7822B88BB089528B381E090E002C075
S11303B0880F991F6A95E2F78095822388BB089578
S11303C0413059F425B381E090E002C0880F991FB1
S11303D06A95E2F7822B85BB089525B381E090E00E
S11303E002C0880F991F6A95E2F78095822385BB26
S11303F00895413059F422B381E090E002C0880F9F
S1130400991F6A95E2F7822B82BB089522B381E09B
S113041090E002C0880F991F6A95E2F780958223C5
S113042082BB08956295607F823479F018F4813438
S113043031F00895833479F0843499F008958BB3BE
S11304408F708BBB8BB3862B8BBB88B38F7088BBB1
S113045088B3862B88BB85B38F7085BB85B3862B09
S113046085BB82B38F7082BB82B3682B62BB089555
S1130470789487B38B7F87BB84B78F7B84BF8BB71C
S113048080628BBF08950E9416070895F8948BB775
S11304908F7D8BBF86B18F7786B90E944B070895F5
S11304A040E060E083E40E94650040E061E083E4B2
S11304B00E94650040E062E083E40E94650040E041
S11304C063E083E40E94650040E064E083E40E940A
S11304D0650040E065E083E40E94650040E066E07A
S11304E083E40E94650040E067E083E40E946500C5
S11304F040E060E084E40E94650040E061E084E460
S11305000E94650040E062E084E40E94650040E0EF
S113051063E084E40E94650041E060E083E40E94BB
S1130520A20141E061E083E40E94A20141E062E0B3
S113053083E40E94A20141E063E083E40E94A201FB
S113054041E064E083E40E94A20141E065E083E4C9
S11305500E94A20141E066E083E40E94A20141E01E
S113056067E083E40E94A20141E060E084E40E9429
S1130570A20141E061E084E40E94A20141E062E062
S113058084E40E94A20141E063E084E40E94A201A9
S11305900895CF9341E060E083E40E94D50041E0F8
S11305A061E083E40E94D50041E062E083E40E94BC
S11305B0D50041E063E083E40E94D50041E064E0BB
S11305C083E40E94D50041E065E083E40E94D50005
S11305D041E066E083E40E94D50041E067E083E403
S11305E00E94D50041E060E084E40E94D50041E02F
S11305F061E084E40E94D50041E062E084E40E946A
S1130600D50041E063E084E40E94D50060E083E427
S11306100E944501882311F0C8EC01C0C1E361E0E8
S113062083E40E944501811101C0C2E362E083E4D6
S11306300E944501811101C0C3E363E083E40E9489
S11306404501811101C0C4E364E083E40E944501D3
S1130650811101C0C5E365E083E40E944501811175
S113066001C0C6E366E083E40E944501811101C034
S1130670C7E367E083E40E944501811101C0C8E338
S113068060E084E40E944501811101C0C9E361E096
S113069084E40E944501811101C0CAE262E084E45D
S11306A00E944501811101C0C0E363E084E40E941B
S11306B04501811101C0C3E28C2FCF910895CF93DE
S11306C00E94C902883CE1F38A32D1F38332C1F338
S11306D0880FC82FCC0FCC0FC80F2FEF82E597E0FF
S11306E0215080409040E1F700C000000E94C90200
S11306F0883CE1F38A32D1F38332C1F38C0F805109
S1130700CF91089541E063E081E40E94D5008FE930
S11307109FE00197F1F700C0000040E063E081E44E
S11307200E94D5008FE99FE00197F1F700C0000017
S11307300895CF93C82F682F62956F7081E40E944B
S1130740120240E061E081E40E94D5000E9482032D
S11307506C2F81E40E94120240E061E081E40E9477
S1130760D5000E9482038FEC97E00197F1F700C057
S11307700000CF9108952FEF81EE94E02150804046
S11307809040E1F700C0000041E064E081E40E9491
S1130790650041E065E081E40E94650041E066E0B7
S11307A081E40E94650041E067E081E40E94650005
S11307B041E063E081E40E94650041E062E081E49D
S11307C00E94650041E061E081E40E94650040E030
S11307D062E081E40E94D50082E00E9499038FE1E7
S11307E09EE40197F1F700C0000088E20E9499039B
S11307F08FEC97E00197F1F700C000008CE00E94B5
S113080099038FEC97E00197F1F700C0000081E0B5
S11308100E9499038FE19EE40197F1F700C0000064
S113082086E00E9499038FEC97E00197F1F700C0EE
S113083000000895CF93C82F682F62956F7081E4EC
S11308400E94120241E061E081E40E94D5000E940E
S113085082036C2F81E40E94120241E061E081E492
S11308600E94D5000E9482038FEC97E00197F1F774
S113087000C00000CF910895CF93DF93EC0103C033
S11308800E941A04219688818111FACF2FE788E308
S113089091E0215080409040E1F700C00000DF91DA
S11308A0CF91089581E00E9499038FE19EE401971E
S11308B0F1F700C0000008959FEF980F923070F494
S11308C0613170F4662371F0813019F42FE7260F3B
S11308D00AC0823041F42FEB260F05C020E803C084
S11308E020E801C020E8822F0E9499038FEC97E052
S11308F00197F1F700C0000008950E94E9060E94E4
S1130900F3050E9450020E94EA050E94F6050E9427
S11309103802C0E091E0913049F46091610042E610
S113092050E0809160000E94300690E08091B50014
S1130930833289F70E949A060E945F0380936000C5
S11309401092B5000E94430211E001E0FF24F394E9
S1130950D1E007C0C1E005C0D1E0C0E002C0D1E0F1
S1130960C0E0C1110EC0D13061F4609161004AE66B
S113097050E0809160000E94300610E001E0D0E079
S113098004C0809161000E94B00660916000809173
S113099061008617D0F48091610070E0681B7109D2
S11309A0072E000C880B990B0E94620820E030E0AF
S11309B048EC52E40E94BF0720E030E040E251E4FA
S11309C00E94EE084B015C0103C0812C912C540160
S11309D00E94ED05BC0180E090E00E9460089B014C
S11309E0AC010E94530720E030E040E251E40E9451
S11309F0BF079B01AC01C501B4010E94EE0820E0D1
S1130A0030E040E251E40E94BF070E94F00590915B
S1130A106100809160008917E0F42091610030E06A
S1130A20281B310926303105A4F460E070E0CB01C5
S1130A300E94F005013039F46091610080916000FA
S1130A400E94E40600E01092B4001092B30011E09A
S1130A5088CF909161009817E8F490916100282F55
S1130A6030E0291B310926303105A4F460E070E040
S1130A70CB010E94F005013039F46091610080914E
S1130A8060000E94E40600E01092B4001092B300EB
S1130A9011E067CF909161008917B8F4209161004B
S1130AA030E0281B31092B3031057CF060E070E028
S1130AB0CB010E94F0050E94460221E0F2124ACFC7
S1130AC00E94A506F12CC1E04CCF909161009817CB
S1130AD010F590916100282F30E0291B3109263050
S1130AE03105CCF08091B3009091B40081359644E7
S1130AF070F060E070E0CB010E94F0050E944602B5
S1130B000E94A5061092B4001092B300C1E0113007
S1130B1009F027CF21CF9091B500933219F41092A8
S1130B20B500F8CE90916100891708F01ACF209192
S1130B30610030E0A901481B5109463051050CF40D
S1130B4010CF113009F00DCF0ACF1F920F920FB6BC
S1130B500F9211242F933F934F935F936F937F933F
S1130B608F939F93AF93BF93EF93FF938091B300C1
S1130B709091B40001969093B4008093B300809157
S1130B80B2008F5F8093B200883C21F40E94010779
S1130B9080936100FF91EF91BF91AF919F918F91ED
S1130BA07F916F915F914F913F912F910F900FBE65
S1130BB00F901F9018951F920F920FB60F92112449
S1130BC08F9383E28093B5008F910F900FBE0F90A7
S1130BD01F9018950E94490008950E945600089598
S1130BE00E94230708950E94BB030895CF93DF93C7
S1130BF0D1E031C00E9452046C2F81E00E945C0459
S1130C0084E790E00E943C042FEF80E792E02150BB
S1130C1080409040E1F700C00000CF5F01C0C1E018
S1130C20CB3040F3C9E014C00E9452046C2F81E021
S1130C300E945C0484E790E00E943C042FEF80E76C
S1130C4092E0215080409040E1F700C00000C15084
S1130C50C111EACFDF5FD43010F3DF91CF91089553
S1130C60EF92FF920F931F93CF93DF93E82EF62E0C
S1130C708A010E94520461E081E00E945C048CE7D6
S1130C8090E00E943C0465E081E00E945C04CDECAD
S1130C90EC9ED12D1124D695D695D69580E38D0F53
S1130CA00E941A0466E081E00E945C04DD0F8D2F2F
S1130CB0880F880FD80F8E2D8D1B805D0E941A041B
S1130CC06BE081E00E945C0481E890E00E943C04B7
S1130CD06FE081E00E945C04FC9EC12D1124C69546
S1130CE0C695C69580E38C0F0E941A0460E181E0EA
S1130CF00E945C04CC0F8C2F880F880FC80F8F2D97
S1130D008C1B805D0E941A0461E082E00E945C04F6
S1130D1086E890E00E943C0467E082E00E945C0464
S1130D20C8010E943C04DF91CF911F910F91FF9065
S1130D30EF9008950E94520461E081E00E945C04F7
S1130D408DE890E00E943C0408950E94520461E002
S1130D5081E00E945C048FE990E00E943C040895C5
S1130D60CF93DF93D82F6FE081E00E945C04CDEC39
S1130D70DC9FC12D1124C695C695C69580E38C0FC2
S1130D800E941A0460E181E00E945C04CC0F8C2F65
S1130D90880F880FC80F8D2F8C1B805D0E941A044A
S1130DA0DF91CF91089587B3806B87BB87E58DB9B9
S1130DB01EB808958FB98EB18823E9F308958EB1D2
S1130DC08823E9F38FB108954BEA50E00E9430067E
S1130DD008950E94D30688B3806188BB80E80E948E
S1130DE0DA0684E00E94DA0688B38F7E88BB2FE798
S1130DF089EA93E0215080409040E1F700C0000070
S1130E00089588B3806188BB82E00E94DA0680E09E
S1130E100E94DA0688B38F7E88BB8FEC97E0019737
S1130E20F1F700C000000E94DF06089585B58860D0
S1130E3085BD8DE783BD85B5846085BD789489B70C
S1130E40806889BF089527B3286027BB23B720642F
S1130E5023BF23B7286023BF20E030E040E251E401
S1130E600E94BF0720E030E04EE753E40E94EE0802
S1130E700E9431086CBF83B7816083BF83B78260EF
S1130E8083BF83B7846083BF83B78F7E83BF83B7F9
S1130E90806283BF089589B78F7789BF87B3877FBF
S1130EA087BB08955058BB27AA270E946A070C9451
S1130EB0B4080E94A60838F00E94AD0820F039F466
S1130EC09F3F19F426F40C94A3080EF4E095E7FB75
S1130ED00C949D08E92F0E94C50858F3BA176207BD
S1130EE073078407950720F079F4A6F50C94E708B6
S1130EF00EF4E0950B2EBA2FA02D0B01B901900131
S1130F000C01CA01A0011124FF27591B99F0593F74
S1130F1050F4503E68F11A16F040A22F232F342FBC
S1130F204427585FF3CF469537952795A795F0400A
S1130F305395C9F77EF41F16BA0B620B730B840B1F
S1130F40BAF09150A1F0FF0FBB1F661F771F881FD7
S1130F50C2F70EC0BA0F621F731F841F48F487952F
S1130F6077956795B795F7959E3F08F0B0CF939521
S1130F70880F08F09927EE0F9795879508950E949A
S1130F80D3070C94B4080E94AD0858F00E94A60838
S1130F9040F029F45F3F29F00C949D0851110C9402
S1130FA0E8080C94A3080E94C50868F39923B1F3D8
S1130FB0552391F3951B550BBB27AA27621773077B
S1130FC0840738F09F5F5F4F220F331F441FAA1F0F
S1130FD0A9F335D00E2E3AF0E0E832D091505040CB
S1130FE0E695001CCAF72BD0FE2F29D0660F771F79
S1130FF0881FBB1F261737074807AB07B0E809F05F
S1131000BB0B802DBF01FF2793585F4F3AF09E3FE3
S1131010510578F00C949D080C94E8085F3FE4F3C4
S1131020983ED4F3869577956795B795F7959F5F26
S1131030C9F7880F911D9695879597F90895E1E072
S1131040660F771F881FBB1F621773078407BA07D1
S113105020F0621B730B840BBA0BEE1F88F7E0952C
S113106008950E94CD0888F09F5798F0B92F9927CA
S1131070B751B0F0E1F0660F771F881F991F1AF07F
S1131080BA95C9F714C0B13091F00E94E708B1E0F5
S113109008950C94E708672F782F8827B85F39F0F4
S11310A0B93FCCF3869577956795B395D9F73EF418
S11310B090958095709561957F4F8F4F9F4F0895C0
S11310C0E89409C097FB3EF49095809570956195DE
S11310D07F4F8F4F9F4F9923A9F0F92F96E9BB2794
S11310E09395F695879577956795B795F111F8CF10
S11310F0FAF4BB0F11F460FF1BC06F5F7F4F8F4F7B
S11311009F4F16C0882311F096E911C0772321F070
S11311109EE8872F762F05C0662371F096E8862F08
S113112070E060E02AF09A95660F771F881FDAF75F
S1131130880F9695879597F9089597F99F6780E8A2
S113114070E060E008959FEF80EC089500240A9415
S11311501616170618060906089500240A9412168E
S11311601306140605060895092E0394000C11F4C1
S1131170882352F0BB0F40F4BF2B11F460FF04C06E
S11311806F5F7F4F8F4F9F4F089557FD9058440FC7
S1131190551F59F05F3F71F04795880F97FB991FD2
S11311A061F09F3F79F0879508951216130614068F
S11311B0551FF2CF4695F1DF08C01616170618061C
S11311C0991FF1CF86957105610508940895E894F7
S11311D0BB2766277727CB0197F908950E94010959
S11311E00C94B4080E94A60838F00E94AD0820F0C0
S11311F0952311F00C949D080C94A30811240C94CD
S1131200E8080E94C50870F3959FC1F3950F50E05C
S1131210551F629FF001729FBB27F00DB11D639FA4
S1131220AA27F00DB11DAA1F649F6627B00DA11D4A
S1131230661F829F2227B00DA11D621F739FB00DF0
S1131240A11D621F839FA00D611D221F749F332760
S1131250A00D611D231F849F600D211D822F762FF9
S11312606A2F11249F5750409AF0F1F088234AF0D6
S1131270EE0FFF1FBB1F661F771F881F9150504042
S1131280A9F79E3F510580F00C949D080C94E80842
S11312905F3FE4F3983ED4F3869577956795B795C9
S11312A0F795E7959F5FC1F7FE2B880F911D9695E3
S10D12B0879597F90895F894FFCF8D
S11312BA19195354414E444259004F50455241540E
S11312CA494F4E0057454C434F4D45005345543AF8
S11312DA004352543A0053544154453A00456E74FB
S11312EA65722054656D7065726174757265004526
S11312FA52524F52205354415445004E4F524D417D
S105130A4C0091
S9030000FC
